:100000000080002039080000790800007B0800000B
:1000100000000000000000000000000000000000E0
:100020000000000000000000000000007D0800004B
:1000300000000000000000007F08000081080000B0
:100040008308000083080000830800008308000084
:100050008308000000000000310600008308000053
:100060008308000083080000830800008308000064
:100070008308000083080000830800008308000054
:100080008308000083080000830800008308000044
:100090008308000083080000830800008308000034
:1000A000830800008308000000000000000000003A
:1000B0000000000000000000000000000000000040
:1000C00010B5064C2378002B07D1054B002B02D02E
:1000D000044800E000BF0123237010BD6800002029
:1000E00000000000A0080000044B10B5002B03D056
:1000F0000349044800E000BF10BDC04600000000F6
:100100006C000020A0080000164B002B00D1144BFF
:100110009D46402292029A1A924600218B460F4633
:100120001348144A121A00F065F80F4B002B00D048
:1001300098470E4B002B00D0984700200021040068
:100140000D000D48002802D00C4800E000BF00F070
:100150002DF82000290000F0C9F800F011F8C04681
:1001600000000800008000200000000000000000E7
:1001700068000020BC00002000000000000000001B
:10018000084B10B50400002B02D0002100E000BF96
:10019000054B1868836A002B00D09847200000F0B8
:1001A00031F8C046000000009C08000070B5002631
:1001B0000C4D0D4C641BA410A64209D1002600F082
:1001C00061FB0A4D0A4C641BA410A64205D170BD08
:1001D000B300EB5898470136EEE7B300EB58984769
:1001E0000136F2E76000002060000020600000207F
:1001F0006400002003001218934200D17047197068
:100200000133F9E7FEE7C0462E4B1B78012B00D0E7
:1002100070472D4B1B681B07FAD1F0222B4B1B6834
:10022000134027D12A4B1B6813422BD0264B1B6847
:100230001B07EDD1F022254B1B681340402B2DD01E
:10024000F022224B1B681340A02B01D0D02BDFD112
:10025000F0231F4A12681A42DAD11E4A1368012B92
:1002600004D01D4B13601368012BFCD1C0221B4B23
:100270001A60CDE7102B01D0302BDBD1144B1B685B
:100280001342D7D1164B174A1A608022164B12021E
:100290001A600C4B1B78012BC8D0B9E70C4B1B68BC
:1002A0001342CDD18022C1230121DB00D205D150E0
:1002B000044B1B78012BABD1034B1B681B07BFD032
:1002C000A6E7C046E00F00F0E40F00F0E80F00F0F2
:1002D000EC0F00F000EC06407593000014EC0640B3
:1002E00004050040DFFF07C0186C004070B582B005
:1002F00000F07CF8002820D10021032201A8FFF79C
:1003000079FF01A9152000F09BF8002818D11520CD
:100310008026A02500F000F90124F605ED00152047
:1003200000F0F2F8112000F02FF9112000F0FEF893
:1003300020BF40BF20BF7451F1E700F005F8DBE7B4
:1003400000F002F8E3E7C046002300B585B001AA3B
:100350009060002103481380536000F005F805B059
:1003600000BDC04601400000BFF34F8F034B044A5D
:10037000DA60BFF34F8FC046FDE7C04600ED00E0F6
:100380000400FA05FF22032330B51400C5B22B4048
:10039000DB009C4089010A40E4439A40002814DBBA
:1003A000104B80089C46C023800060449B00C158CD
:1003B0000C402243C2501F23C0211D401E3BAB40B6
:1003C000084A49005350136030BD0F2306492B40A3
:1003D0008C46083B9B089B006344D9690C40224330
:1003E000DA61E8E700E100E000ED00E070B53525F6
:1003F000114C635D002B1DD13422013B6361A3616D
:10040000E36123626362A362E36223630321062044
:10041000A35423606360A360E3602361FFF7B2FF2E
:10042000C1238021054A9B000906D15001230020E9
:10043000635570BD0820FCE7840000200060004088
:10044000F0B514252C4A030014186557082001350F
:100450000FD1887800280DD01068013045D0506841
:10046000013044D09068013043D0D4680420013476
:1004700018D0F0BDFE2222750122A02049789A40B2
:10048000C00501290AD01D494250A0220321C133D1
:10049000FF339B00D20599500020EAE7A121C90053
:1004A0004250F2E70138164DD4182075AC460024AE
:1004B000A2258000ED00145060444659114F0A787F
:1004C0003E40C0271204BF023A4080274C787F0389
:1004D00024053C40F827465122437F011C0246591F
:1004E0003C40224332434251C6E70020DBE7012073
:1004F000D9E70220D7E7C046840000200C050000A1
:1005000000600040FFE0ECFF0123A021A122834016
:10051000C905D2008B5070470123A0218340024AB5
:10052000C9058B507047C0460C05000010B5134B31
:100530001B181B7D5BB2032B12DCDAB2032A0ED828
:100540000F4AA2249446012299006144E40008590C
:1005500090439A40C223085161469B00CA5010BD87
:10056000A023DB059C46E02380006044DB00C258EA
:1005700004490A40C250C258C250F0E7840000202B
:1005800000600040FFFFFCFF1422F0B525490B1866
:100590009A56D3B2032A23DC032B30D8224CA2274D
:1005A000A446012495006544FF00EE59A643EE5190
:1005B000C22594406646AD007451002545321A4C60
:1005C000FF32920015510200A024C132FF32920086
:1005D000E4050235155101229B005242CA501DE02C
:1005E000A025ED05AC46E02584006444ED00665985
:1005F0000E4F3E40665166596651032BDDD902000D
:10060000A0240225C132FF329200E40515510122D7
:100610009C00CB18524230330A511A70FF2309183C
:100620000B75F0BD8400002000600040FFFFFCFF60
:10063000F8B54546DE4657464E46E0B5764A0025B3
:100640001368012B00D1DDE0744B1A68012A00D138
:10065000CCE0734B1A68012A00D1BBE0714B1A68D9
:10066000012A10D00022704B90461B68012B00D14C
:10067000A3E02B0718D1002D33DB3CBC90469946F4
:10068000A246AB46F8BDC1226849920089580822AB
:100690000A42E7D000211960634B15431B68012B08
:1006A00000D18AE00023984603239A46604BA22794
:1006B000012600249946FF0035420CD05B4AA30076
:1006C0009A18D059D1595246090C11404A46C004D3
:1006D000C00ED358984701347600042CECD1002D7D
:1006E000CBDA0023012299460125514C5242342392
:1006F000E356C026D9B20800B0430133BDD0C24092
:100700001542BAD023181B7D89095BB29B00E258C1
:10071000002A44D02B0083409A46032945D0A026C6
:10072000F605B44683009C44E0236646DB00F3589C
:10073000474656469B039B0F3E4226D1032B9CD136
:10074000032927D180218902E0236646DB00F65881
:10075000B246384EB34656465F463E40B2466646BF
:100760005746F750F65831436646F150002A01D0FB
:1007700003219047A022A223D205DB00D3584A468A
:10078000984500D179E79846B1E7022B00D074E78D
:1007900003290FD0002A00D16FE790476DE70329A6
:1007A00000D06AE72B0083409A464B4656463343B7
:1007B0009946B4E7C0218902C6E700221A4B1A60A5
:1007C00080231B061D43A022A223D205DB00D358A1
:1007D00098464EE7C12215499200895804220A42E0
:1007E00000D13BE700211543196037E7C1220F49CB
:1007F0009200895802220A4200D12AE700211543BB
:10080000196026E7C1210948890045581D4000D1DB
:100810001AE70023136017E70061004004610040FD
:10082000086100400C6100407C61004000600040B5
:1008300084000020FFFFFCFF03210A4802680A43EE
:100840000260094802680A4302600849084A094BE5
:100850009B1A03DD043BC858D050FBDCFFF7D4FCE7
:10086000FFF752FC2405004054050040AC0800008E
:100870000000002068000020FEE7FEE7FEE7FEE73C
:10088000FEE7FEE7F8B5C046F8BC08BC9E467047D8
:10089000F8B5C046F8BC08BC9E4670470000002072
:0408A0000000000054
:0808A40064F8FF7F0100000071
:1008AC00000000000000000000000000000000003C
:1008BC00000000000000000000000000000000002C
:1008CC00000000000000000000000000000000001C
:1008DC00000000000000000000000000000000000C
:1008EC0000000000000000000000000000000000FC
:1008FC0000000000000000000000000000000000EC
:08090C00E9000000C100000039
:0400000300000839B8
:00000001FF
