:100000000000042011290000652900006729000074
:10001000692900006B2900006D2900000000000024
:100020000000000000000000000000006F29000038
:1000300071290000000000007329000075290000EC
:100040007729000049280000492200007729000094
:100050007729000077290000772900007729000020
:100060002D3800007729000077290000772900004B
:100070007729000077290000772900007729000000
:100080007729000009220000772900007729000065
:1000900077290000772900007729000077290000E0
:1000A00077290000772900007729000077290000D0
:1000B0007729000077290000000000000000000000
:1000C00077290000772900007729000077290000B0
:1000D00077290000772900007729000077290000A0
:1000E0007729000077290000772900007729000090
:1000F0000000000077290000154B002B08BF134BB0
:100100009D46A3F5803A00218B460F461348144ABA
:10011000121A00F063F80F4B002B00D098470E4BDB
:10012000002B00D098470020002104000D000D484E
:10013000002802D00C48AFF3008000F02BF820001C
:10014000290001F06FFF00F011F800BF0000080067
:100150000000042000000000000000002803002030
:100160001C090020000000000000000008B5074B3B
:10017000044613B10021AFF30080054B1868836A71
:1001800003B19847204604F079FD00BF000000004D
:10019000984C000070B50D4E0D4CA41BA41000250A
:1001A000A54209D10B4E0C4C04F06AFDA41BA4100F
:1001B0000025A54205D170BD56F825309847013578
:1001C000EEE756F8253098470135F2E7280300207E
:1001D00028030020280300202803002002440346AF
:1001E000934200D1704703F8011BF9E72DE9FF475F
:1001F00055EC104B0D9FDDF830A0002D0E469146BA
:100200001946B8BF22462B4627F02007BBBF05F191
:1002100000431D4600232D23B8BF1446462F0B7004
:1002200004D0452F00D10136022100E0032103ABA9
:10023000019302AB00933246534645EC104B00F05D
:10024000C7FC472F804602D119F0010F26D0462F58
:1002500008EB060911D198F80030302B0AD10022A2
:1002600000232046294603F05DFF18B9C6F10106B8
:10027000CAF80060DAF800309944002200232046D2
:10028000294603F04FFF38B93022039B4B4505D276
:10029000591C03911A70F8E7CDF80C90039B0E9A45
:1002A000A3EB08034046136004B0BDE8F087F7B540
:1002B00000290446BABF49422D232B23092904F8FB
:1002C000022B437020DD0DF107031F460A2691FB28
:1002D000F6F506FB15113031092D03F8011C03F169
:1002E000FF32294609DC3031023B02F8011CBB42D7
:1002F000224604D3101A03B0F0BD1346E7E713F803
:10030000012B04F8012BF2E7302319448370021DFE
:10031000C170EFE72DE9F04F8DB00C46DDF8588045
:1003200016461F46054601F00BFA0368049318466B
:1003300000F0B8FB00230A93D8F80030059007338B
:1003400023F0070303F1080294F818A0D4F800B0D2
:10035000C8F80020D3E90023C4E91223D4E91289A4
:1003600029F000430793CDF818804FF0FF32A74BD8
:10037000DDE9060103F008FF70BB4FF0FF32A34B2D
:10038000DDE9060103F0E2FE30BB00220023404617
:10039000494603F0D1FE10B12D2384F843309C4A26
:1003A0009C4BBAF1470F8CBF9046984603232BF025
:1003B0000402236122604FF00009009733460BAA24
:1003C0002146284600F0E6F9013040F08D804FF0DC
:1003D000FF300DB0BDE8F08F42464B4640464946DF
:1003E00003F0D2FE10B18C4A8C4BDAE761684B1CEB
:1003F0004BF480620AA83ED1062363600023CDE956
:10040000020309AB009349EC108B0DF1230322602A
:10041000CDF804A061682846FFF7E8FE0AF0DF0384
:10042000472B804609D1099BD81C02DB62689342A6
:1004300047DDAAF1020A5FFA8AFABAF1650F099953
:1004400024D80139524604F150000991FFF72FFFDB
:100450000A9A1318012A8146236102DC2268D10717
:1004600001D5013323619DF82330002BA5D02D2326
:1004700084F84330A1E7BAF1670F00F07781BAF151
:10048000470FBBD10029B9D10123B6E7BAF1660FF6
:1004900019D1002963680CDD216113B92268D207E4
:1004A00002D501330B442361099BA3654FF000097A
:1004B000D9E713B92268D00701D50233F3E7012346
:1004C000F1E74FF0670ADDE90932934205DB226864
:1004D0002361D107E8D50133E5E7002BD4BFC3F191
:1004E000020301231344DEE723685A0507D4236976
:1004F000424631462846B84701302BD167E7BAF16A
:10050000650F40F2DC8000220023D4E9120103F0E1
:1005100009FE002833D00123414A31462846B84716
:1005200001303FF454AFDDE909239A4202DB23682E
:10053000D8070FD5DDE9042331462846B8470130F6
:100540003FF445AF4FF0000804F11A090A9B013B44
:10055000434509DC23689B0700F10381E0680B9B9E
:100560009842B8BF184634E701234A463146284628
:10057000B84701303FF42BAF08F10108E6E7099BCB
:10058000002B2BDC0123264A31462846B847013090
:100590003FF41DAF099B23B90A9B13B92368D90700
:1005A000D8D5DDE9042331462846B84701303FF469
:1005B0000EAF4FF0000904F11A0A099B5B424B454C
:1005C00001DC0A9B94E70123524631462846B8478E
:1005D00001303FF4FCAE09F10109EEE70A9AA36D80
:1005E0009A42A8BF1A46002A914607DD13463146B3
:1005F00042462846B84701303FF4E9AE04F11A03F9
:100600004FF0000B29EAE979069315E0FFFFEF7F31
:10061000A04C00009C4C0000A84C0000A44C000022
:10062000AC4C00000123069A31462846B8470130F9
:100630003FF4CDAE0BF1010BD4F858A0AAEB09039F
:100640005B45EFDCDDE909239A42D04415DB2368E2
:10065000DA0712D40A9B0999A3EB0A02A3EB010A59
:100660009245A8BF9246BAF1000F0EDC4FF0000889
:100670002AEAEA7A04F11A0919E0DDE9042331468D
:100680002846B8470130E5D1A1E6534642463146F7
:100690002846B8470130E9D199E601234A46314658
:1006A0002846B84701303FF492AE08F10108DDE971
:1006B00009239B1AA3EB0A034345EEDC4AE70A9A97
:1006C000012A01DCDB073AD50123424631462846A0
:1006D000B84701303FF47BAEDDE9042331462846BC
:1006E000B847013008F101083FF471AE0A9B0022BF
:1006F00003F1FF3AD4E91201002303F013FDC8B956
:100700005346424631462846B84701300ED15EE690
:100710000123524631462846B84701303FF457AED0
:1007200008F101080A9B013B4345F1DC4B4604F10B
:100730005002DEE64FF0000804F11A0AF2E7012346
:10074000DFE701234A4631462846B84701303FF4E7
:100750003EAE08F10108E3680B9A9B1A4345F0DCB2
:10076000FCE64FF0000804F11909F4E700293FF412
:100770008BAE0023CDE9020309AB009349EC108B4B
:100780002260CDF804A00DF123032846FFF72EFDCB
:10079000804648E62DE9F04791461F468A680B6976
:1007A000DDF820809342B8BF1346C9F8003091F8B5
:1007B000432006460C4612B10133C9F800302368C5
:1007C000990642BFD9F800300233C9F800302568D5
:1007D00015F0060507D104F1190AE368D9F80020DD
:1007E0009B1AAB4228DC94F843302268003318BFD0
:1007F000012392062DD404F1430239463046C04706
:10080000013020D02368E568D9F8002003F0060302
:10081000042B08BFAD1AA36822690CBF25EAE57551
:1008200000259342C4BF9B1AED184FF000091A34FB
:100830004D451AD1002008E0012352463946304682
:10084000C047013003D14FF0FF30BDE8F0870135DC
:10085000C3E7E1185A1C302081F84300224494F881
:10086000451082F843100233C5E70123224639467A
:100870003046C0470130E6D009F10109D8E7000051
:100880002DE9F04301F1430C0C46097E85B06E2939
:100890001746064698460C9A00F0B38022D8632982
:1008A00036D00AD8002900F0B980582900F083809A
:1008B00004F1420584F8421032E0642901D069292C
:1008C000F6D120681368050603F104012AD51B68D8
:1008D0001160002B03DA2D225B4284F843206F481D
:1008E0000A2239E0732900F09D8008D86F2920D0B2
:1008F0007029DDD1236843F02003236003E07529CC
:1009000017D07829D4D1782384F84530644855E04D
:100910001368191D1B68116004F1420584F8423008
:1009200001238CE01B68116010F0400F18BF1BB250
:10093000CFE713682568181D1060280601D51B68CD
:1009400002E06806FBD51B8854486F2914BF0A22B1
:100950000822002184F843106568A560002DC0F2CC
:100960009580216821F004012160002B3DD1002DEC
:1009700040F08E806546082A0BD12368DB0708D536
:10098000236962689A42DEBF302305F8013C05F115
:10099000FF35ACEB05032361CDF800803B4603AA8D
:1009A00021463046FFF7F6FE01304DD14FF0FF30C3
:1009B00005B0BDE8F083394884F845101368216814
:1009C0001D1D1B6815600A060BD5CA0744BF41F000
:1009D000200121601BB9226822F02002226010222F
:1009E000B7E74D0648BF9BB2EFE76546B3FBF2F1B0
:1009F00002FB1133C35C05F8013D0B460029F5D11C
:100A0000B9E7136825686169181D106028061B681E
:100A100001D5196002E06A06FBD519800023236125
:100A20006546B9E71368191D11601D6862680021E9
:100A3000284600F09DFE08B1401B6060636823619A
:100A4000002384F84330A7E723692A463946304615
:100A5000C0470130AAD023689B0713D4E068039BEA
:100A60009842B8BF1846A3E701234A4639463046A4
:100A7000C04701309AD00135E368039A9B1AAB4214
:100A8000F2DCEBE7002504F11909F5E7002BACD106
:100A9000037884F8423004F142056CE7AE4C000064
:100AA000BF4C0000034613F8012B002AFBD1181A93
:100AB000013870472DE9F74F03690C69A34280465E
:100AC000C0F28280013C01F114074FEA840C00F16E
:100AD000140657F8245056F8240006EB0C03013591
:100AE00007EB0C090193B0FBF5F595B34FF0000A45
:100AF0003846B646D34650F8042B93B205FB03A301
:100B00004FEA134A9BB2ABEB0303120CDEF800B0C2
:100B100005FB02A213FA8BF34FEA124A1FFA82FB7B
:100B2000DEF80020CBEB124202EB23429BB243EAF9
:100B3000024381454FEA224B4EF8043BDBD256F884
:100B40000C3033B9019B043B9E421A4630D3C8F89F
:100B50001040404601F07CF8002825DB0135304686
:100B60004FF0000C57F8042BD0F800E093B2ACEB38
:100B70000303120C13FA8EF3C2EB1E4202EB234264
:100B80009BB243EA0243B9454FEA224C40F8043B8A
:100B9000E8D256F8242006EB84032AB9043B9E428F
:100BA0001A460BD3C8F81040284603B0BDE8F08FB2
:100BB0001268043B002ACAD1013CC5E71268043B15
:100BC000002AEFD1013CEAE70020EEE70000000038
:100BD0002DE9F04F57EC106B97B0456A069104462B
:100BE0000B921293DDF88080CDE900673DB91020AB
:100BF00000F0B4FD6062C0E901550560C560636A3C
:100C0000196851B15A684A60012393408B602046AD
:100C100000F03DFE636A00221A603B1EBBBF23F05A
:100C20000043019300230122ACBFC8F80030C8F88C
:100C30000020AF4BDDF8048033EA080314D1129A88
:100C400042F20F731360009B23B9C8F3130000280E
:100C500000F04285219BDFF8ACB2002B00F0448508
:100C60000BF1030300F03EBDDDE900670022002325
:100C70003046394603F056FA814668B1129A01238C
:100C80001360219B002B00F024859A4B219A03F1DD
:100C9000FF3B136000F028BD14AA15A947EC106BA8
:100CA000204601F04CF8C8F30A550490002D7CD082
:100CB000C7F3130343F07F5BB2464BF4401BA5F22E
:100CC000FF35CDF84C9000228B4B5046594602F030
:100CD00009FE81A3D3E9002302F0BCFF80A3D3E97E
:100CE000002302F001FE064628460F4602F048FFA8
:100CF0007DA3D3E9002302F0ADFF02460B46304648
:100D0000394602F0F1FD06460F4603F053FA002281
:100D1000824600233046394603F00EFA48B1504669
:100D200002F02EFF32463B4603F0FCF908B90AF107
:100D3000FF3ABAF1160F59D8704901EBCA01DDE943
:100D40000023D1E9000103F015FA002850D00AF180
:100D5000FF3A00230F93149B5D1BB5F1010849BFB7
:100D6000C5F10103002305934FF0000858BF059318
:100D7000BAF1000F3EDB0023D044CDF838A0079332
:100D8000069B092B00F29080052BC4BF043B069301
:100D9000069BA3F10203CCBF00250125032B00F223
:100DA0008F80DFE803F07D7F3171DDE914531D444E
:100DB00005F23240202813DDC0F14000009B08FA04
:100DC00000F805F2124023FA00F048EA000002F0B1
:100DD000C7FE01238246A1F1F87B013D139372E720
:100DE000009BC0F1200003FA00F0F0E70123B1E717
:100DF0000F90B0E7059BA3EB0A030593CAF100032C
:100E0000079300230E93BBE701230A930B9B002B50
:100E100059DD02939946666A00227260042202F14B
:100E200014009842716853D9204600F0FCFC636AB4
:100E30003060B9F10E0FD3F800B000F2E680002D5B
:100E400000F0E3809DED007BBAF1000F8DED107B8B
:100E500074DD2A4A0AF00F0302EBC30393ED007B13
:100E60004FEA2A16F0068DED087B65D5244BDDE9A7
:100E70001001D3E9082303F017F8CDE9000106F0CB
:100E80000F0603251E4F4CE001230A930B9B53448E
:100E900003F1010902934B46012BB8BF0123BAE7C6
:100EA0000023B2E70023F0E70125002306930A950B
:100EB0004FF0FF3302939946002212230B92AAE7C8
:100EC00001230A93F4E70123029399461A46F5E7B2
:100ED000013171605200A2E761436F63A787D23F7F
:100EE000B3C8608B288AC63FFB799F501344D33F19
:100EF0000000F07FAD4C00000000F83F084D0000FE
:100F0000E04C0000D94C0000F10708D5DDE90801EC
:100F1000D7E9002302F09EFECDE9080101357610E5
:100F20000837002EF0D1DDE90823DDE9000102F0E9
:100F3000BBFFCDE900011AE00225A3E700F0A08085
:100F4000CAF100069F4BA04F06F00F0203EBC2034D
:100F5000D3E90023DDE9100102F07CFECDE90001B8
:100F6000361100230225002E7FD1002BE1D10F9BEB
:100F7000002B00F08780DDE900670022934B3046AC
:100F8000394603F0D9F800287CD0B9F1000F79D0A8
:100F9000029B002B35DD0AF1FF330893394600220E
:100FA0008B4B304602F056FECDE90001029F013521
:100FB000284602F0E5FDDDE9002302F04BFE0022A9
:100FC000844B02F091FC0546A1F15076002F5DD1D3
:100FD0000022814BDDE9000102F084FC2A46334601
:100FE000CDE9000103F0C6F8002840F088822A46C7
:100FF00006F10043DDE9000103F09EF8002840F00F
:101000007C82DDE91023CDE90023159B002BC0F283
:101010005081BAF10E0F00F34C816A4B03EBCA0307
:1010200093ED007B0B9B002B8DED027B80F2D88033
:10103000B9F1000F00F3D48040F05E820022664BCD
:1010400051EC170B02F006FEDDE9002303F088F8EF
:101050004F464E46002840F0348231230BF1010503
:101060008BF800300AF1010A2FE2F20705D5D7E923
:10107000002302F0EFFD013501237610083772E7F7
:10108000022574E7CDF820A04F4691E74D4B03EBC6
:10109000C70353E902010A9B002B47D002460B46C7
:1010A00000204E4902F000FF2A46334602F01AFCA7
:1010B000CDE90C015D46DDE9000103F07BF8064651
:1010C00002F05EFD02460B46DDE9000102F00AFC7B
:1010D000303605F8016BDDE90C23CDE9000103F0A2
:1010E0002BF8002863D1DDE900230020374902F006
:1010F000F9FBDDE90C2303F01FF8002840F0B7806E
:10110000A5EB0B039F427FF77CAF0022304BDDE95C
:101110000C0102F09FFD0022CDE90C012C4BDDE912
:10112000000102F097FDCDE90001C4E72A463346ED
:1011300002F090FDCDE90C010BEB07055E46DDE901
:10114000000103F037F8074602F01AFD3037024677
:101150000B46DDE9000102F0C5FB06F8017BAE425B
:10116000CDE900014FF0000226D11C4BDDE90C0156
:1011700002F0BAFB02460B46DDE9000102F0FAFF7D
:10118000002874D1DDE90C230020144902F0AAFBE9
:1011900002460B46DDE9000102F0CEFF00283FF4D5
:1011A00030AF15F8013C302B05F1FF3202D0DDF8ED
:1011B00020A04AE01546F4E7054B02F04BFDCDE9CF
:1011C0000001BCE7084D0000E04C00000000F03FCB
:1011D0000000244000001C40000014400000E03FDC
:1011E000DDE900675D46DDE902233046394602F05D
:1011F0005BFE02F0DFFF804602F0C2FCDDE9022365
:1012000002F028FD02460B463046394608F130060A
:1012100002F068FB05F8016BA5EB0B06B145024631
:101220000B4639D102F060FBDDE9022306460F468A
:1012300002F0A0FFC8B9DDE902233046394602F0CA
:1012400071FF10B118F0010F0FD10499204600F082
:101250001EFB0023129A2B700AF101031360219BDD
:10126000002B00F041821D603EE2CDF820A015F871
:10127000012C392A05F1FF3308D19B450AD1089B7F
:101280000133089330238BF800305B461A78013223
:101290001A708CE71D46EAE700229B4B02F0DAFC4D
:1012A0000022002306460F4602F03CFF00289AD099
:1012B000CBE70A9A002A00F08B80069A012A6EDC9E
:1012C000139A002A67D003F23343079F059D059ABE
:1012D00001211A4420460592984400F078FB064606
:1012E000002D0CDDB8F1000F09DD4545059A2B46B0
:1012F000A8BF4346D21A0592ED1AA8EB0308079B34
:10130000EBB10A9B002B67D08FB131463A4620469D
:1013100000F0FCFB049A01460646204600F060FB04
:1013200004990890204600F0B2FA089B0493079BAA
:10133000DA1B04D00499204600F0E8FB0490012158
:10134000204600F044FB0E9B0746002B00F0D081A6
:101350001A460146204600F0D9FB069B012B0746A2
:1013600040DC009B002B39D1019BC3F31303002BFE
:1013700036D1019B23F000431B0D1B052BB1059BB0
:101380000133059308F10108012307930E9B002BFD
:101390002AD1012030E0149BC3F1360395E7079B67
:1013A00009F1FF37BB42BFBF079B0797FA1A0E9B95
:1013B000BBBF9B180E93DF1B0027B9F1000FB5BF11
:1013C000059B059DA3EB09054B46B8BF00237EE7AF
:1013D000079F059D0A9E83E7079AABE70023D4E7A2
:1013E000009BD2E7002307933B6907EB830318694F
:1013F00000F09FFAC0F12000404410F01F0047D0D9
:10140000C0F12003042B3BDD059BC0F11C0003440D
:10141000059305448044059B002B05DD1A4604997D
:10142000204600F0C1FB0490B8F1000F05DD3946FD
:101430004246204600F0B8FB07460F9B53B339469F
:10144000049800F005FC002824DA00230A220499FD
:10145000204600F033FA0A9B04900AF1FF3A002B71
:1014600000F04D81002331460A22204600F026FA82
:10147000029B002B06464FDC069B022B4CDD11E045
:10148000C9D0059A1C331A4405921D449844C2E7FA
:101490000346F6E7B9F1000F38DC069B022B35DD79
:1014A000CDF80890029B63B939460522204600F02A
:1014B00005FA01460746049800F0CAFB00283FF7EA
:1014C000CCAD0B9B5D466FEA030A4FF0000939462D
:1014D000204600F0DCF9002E3FF4B7AEB9F1000F62
:1014E00005D0B14503D04946204600F0D0F9314639
:1014F000204600F0CCF9A8E600273E46E1E7DDF8FB
:1015000020A03E46A9E500BF000024400A9BCDF87C
:101510000890002B00F0FA80002D05DD31462A46A8
:10152000204600F041FB0646079B002B4CD071681B
:10153000204600F078F9326902320546920006F141
:101540000C010C3000F064F901222946204600F01D
:101550002BFB009BCDF814B003F00103B1460793B9
:10156000064639460498FFF7A5FA4946054600F1B4
:101570003008049800F06CFB324600903946204653
:1015800000F080FBC368024603BB01460890049844
:1015900000F05EFB089A034611462046089300F0CF
:1015A00076F9089BA3B9069A92B9079A82B9B8F15D
:1015B000390F29D0009B002B01DD05F13108059B77
:1015C0005D1C83F8008082E73046C2E70123E3E731
:1015D000009A002A04DB25D1069A1ABB079A0ABB97
:1015E000002BECDD01220499204600F0DDFA39469B
:1015F000049000F02DFB002803DCE0D118F0010F6F
:10160000DDD0B8F1390FD8D1059B059A5D1C39237F
:10161000137015F8013C392B05F1FF324FD001331F
:10162000137054E7059A002B02F1010506DDB8F1AD
:10163000390FE9D008F10108059BC2E7029A05F8C5
:10164000018CA5EB0B03934221D000230A220499BD
:10165000204600F033F9B14504904FF000034FF0FD
:101660000A024946204605D100F028F9814606467F
:10167000059576E700F022F93146814600230A22DB
:10168000204600F01BF90646F2E74FF00009012260
:101690000499204600F088FA3946049000F0D8FA00
:1016A0000028B6DC02D118F0010FB2D115F8013CC8
:1016B000302B05F1FF327FF40AAF1546F6E793456C
:1016C00005D131230AF1010A8BF80030FFE61546F7
:1016D0009FE7DFF864B007E0219BDFF860B01BB143
:1016E0000BF10803219A1360584617B0BDE8F08F3C
:1016F000069B012B7FF735AE0E9B079349E6029BB5
:10170000002B03DC069B022B3FF7CCAE5D4639462F
:101710000498FFF7CFF900F1300805F8018B029A21
:10172000A5EB0B039A42B0DD00230A220499204660
:1017300000F0C4F80490EAE7AC4C0000D04C000084
:10174000044B1B68186A044B002808BF1846F03089
:10175000704700BFF80000205C010020024B0146EA
:10176000186800F097BB00BFF800002000000000E0
:1017700001F0FF01102A2BDB10F0070F08D010F842
:10178000013B013A8B422DD010F0070F42B3F6D146
:10179000F0B441EA012141EA014122F007047FF05F
:1017A00000070023F0E80256083C85EA010586EAB6
:1017B000010685FA47F5A3FA87F586FA47F6A5FAF2
:1017C00087F68EB9EED1F0BC01F0FF0102F00702FE
:1017D00032B110F8013B013A83EA010313B1F8D1A9
:1017E0000020704701387047002D06BF354603388A
:1017F000073815F0010F07D1013015F4807F02BFC3
:10180000013015F4C03F0130F0BC0138704700BF13
:1018100010B5431E0A44914200D110BD11F8014B8E
:1018200003F8014FF7E770B5456A04460E463DB927
:101830001020FFF793FF6062C0E901550560C560A5
:10184000656AEB6883B1636ADB6853F82600B8B950
:10185000012101FA06F56A1D9200204600F0BEFA49
:1018600060B1C0E901650EE021220421204600F0AC
:10187000B5FA636AE860DB68002BE4D1002070BD34
:10188000026843F826200023C0E90333F7E770B568
:10189000446A06460D463CB91020FFF75FFF7062B0
:1018A000C0E901440460C4603DB1736A6A68DB68E2
:1018B00053F82210296043F8225070BD2DE9F04101
:1018C0000D691F4606460C4601F1140C0023DCF896
:1018D000000081B202FB01710F0C000C02FB0070D2
:1018E00089B2013301EB00419D424FEA10474CF8A9
:1018F000041BECDCD7B1A368AB4212DC6168304654
:101900000131FFF790FF2269023204F10C01804699
:1019100092000C30FFF77CFF21463046FFF7B7FFFF
:10192000444604EB850301355F6125612046BDE82F
:10193000F081020C12040346B2B90304102013F024
:101940007F4F04BF1B02083013F0704F04BF1B0110
:10195000043013F0404F04BF9B000230002B06DB25
:101960005B0003D5013070470020E8E72020704776
:10197000036813F0070201460BD0DA0723D4980757
:1019800049BF5B089B0801200B605CBF0B60022015
:10199000704798B2A8B91B0C102013F0FF0F04BFBA
:1019A0001B0A08301A0704BF1B0904309A0704BF3A
:1019B0009B080230DA0702D45B0806D001300B60C6
:1019C00070471046E9E7002070472020704710B5A7
:1019D0000C460121FFF727FF01224461026110BD7F
:1019E0002DE9F74F14460A6923699A42B8BF0B469E
:1019F0008846BCBFA0461C46D8F81070D4F810909A
:101A0000D8F80830D8F8041007EB0906B342B8BF7D
:101A10000131FFF708FF00F1140505EB860E2B4698
:101A20000022734516D304F1140208F1140102EBED
:101A3000890301EB87070093009B019293420CD826
:101A4000002E03DD5EF8043D002B5DD0066103B07F
:101A5000BDE8F08F43F8042BE3E7B2F800B0BBF128
:101A6000000F23D08946AC464FF0000859F8044BCC
:101A7000DCF800A0A3B21FFA8AFA0BFB03A34FEA1B
:101A8000144ADCF8004043444FEA14480BFB0A8434
:101A900004EB1344E2469BB243EA04434F454FEA4A
:101AA00014484AF8043B2BD8CCF80480019BB3F8C7
:101AB00002A00432BAF1000F20D02B688946A84654
:101AC0004FF0000BB9F800C0B8F802400AFB0C4414
:101AD0005C44C4469BB243EA04434CF8043B59F8C7
:101AE000043BB8F804B01B0C0AFB03B303EB14432C
:101AF0004F454FEA134B05D8C8F8043004359BE72F
:101B0000D446B3E7E046DDE7013E99E72DE9F84327
:101B1000154612F0030206460F4607D0013A214C43
:101B2000002354F82220FFF7C9FE0746AD1035D038
:101B3000746A3CB91020FFF711FE7062C0E90144DD
:101B40000460C460D6F82480D8F808404CB940F24C
:101B500071213046FFF73BFF0023C8F80800044618
:101B600003604FF00008EB070AD53946224630469D
:101B7000FFF736FF394681463046FFF788FE4F466D
:101B80006D100BD0206838B9224621463046FFF749
:101B900027FF2060C0F800800446E4E73846BDE82F
:101BA000F88300BFD04D00002DE9F0470C464FEA06
:101BB000621A236949680AEB0309A36807461646B7
:101BC00009F10105AB4232DB3846FFF72CFE00235A
:101BD000804600F114011A4653452BDB20692AEA9E
:101BE000EA7A04F1140316F01F0201EB8A0103EBF9
:101BF000800C25D0C2F1200E00201E688A46964037
:101C000030434AF8040B53F8040B9C4520FA0EF0BD
:101C100014D8486008B109F10205013D3846C8F8FA
:101C200010502146FFF733FE4046BDE8F0870131F2
:101C30005B00C7E741F823200133CDE75146DCE7DD
:101C4000043953F8042B41F8042F9C45F9D8E4E7F4
:101C500003690A699B1A30B50CD192001430143113
:101C60008418114454F8045D51F8042D954203D0B2
:101C700005D30123184630BDA042F3D3FAE74FF055
:101C8000FF33F7E72DE9F0470D4607461146284692
:101C90001446FFF7DDFF061E08D131463846FFF730
:101CA000C2FD0123C0E90436BDE8F087A4BF234686
:101CB0002C4638466168A6BF1D4600260126FFF760
:101CC000B2FD2B69C660266905F1140904F11402FE
:101CD00002EB860709EB830800F114054FF0000EB4
:101CE00052F804AB59F8044B1EFA8AF1A3B2C91A90
:101CF000230CC3EB1A4303EB214389B24FEA234E73
:101D0000C84541EA0343944645F8043BE8D8BC453E
:101D100004D355F8043D83B10661C5E75CF8041BA4
:101D20001EFA81F31A1402EB11429BB243EA0243FA
:101D30004FEA224E45F8043BE9E7013EE9E72DE989
:101D4000F7430E46012159EC108B1546FFF76BFD4A
:101D5000C9F30A540746C9F3130334BB0193B8F11E
:101D6000000327D002A840F8083DFFF701FE0099C4
:101D7000F0B1019AC0F1200302FA03F30B43C24011
:101D80007B610192019BBB61002B14BF02210121E9
:101D90003961C4B1A4F2334404443460C0F1350065
:101DA0002860384603B0BDE8F08343F48013D5E7DC
:101DB0007961E7E701A8FFF7DBFD019B7B6101216A
:101DC00039612030E5E707EB8103A0F23240306053
:101DD0001869FFF7AEFDC0EB4110E1E738B502FB33
:101DE00001F4214600F056F8054618B122460021BC
:101DF000FEF7F4F9284638BD38B50546002945D028
:101E000051F8043C0C1F002BB8BFE41800F0BEF8DA
:101E10001F4A1368104633B9636014602846BDE852
:101E2000384000F0B4B8A3420CD92168621893423C
:101E300004BF1A685B68636004BF521822600460C4
:101E4000ECE713465A680AB1A242FAD91968581841
:101E5000A0420BD120680144581882421960DDD19C
:101E6000106852685A6001441960D7E702D90C2300
:101E70002B60D3E7206821188A4204BF116852689A
:101E8000626004BF091821605C60C7E738BD00BF0D
:101E90002803002070B5CD1C25F0030508350C2D56
:101EA00038BF0C25002D064601DBA94203D90C23BF
:101EB0003360002070BD00F069F8214A14682146A3
:101EC00091B9204C23681BB9304600F03DF82060E2
:101ED0002946304600F038F8431C24D10C233360E7
:101EE000304600F054F8E4E70B685B1B18D40B2B6A
:101EF0000FD90B60CD50CC18304600F048F804F1F3
:101F00000B00231D20F00700C31AD3D05A42E25021
:101F1000D0E78C424B6816BF636013600C46EBE75A
:101F20000C464968CCE7C41C24F00304A04205D049
:101F3000211A304600F008F80130CFD02560DBE7E9
:101F4000280300202C03002038B5064C002305464A
:101F50000846236000F09AF8431C02D1236803B1BD
:101F60002B6038BDE406002082B001B901A942B15E
:101F70004BB113780B601278101C18BF012002B00F
:101F800070471046FBE76FF00100F8E770477047B5
:101F900049B1FF2A85BF8A2303600A704FF0FF30E2
:101FA00098BF01207047084670470000F0B50388CD
:101FB00085B043BB164B174E93F82550164F05F5C9
:101FC000166500242523CDE9004322463B461349EC
:101FD0001348CDE9025602F025F900F075FC72B6FF
:101FE0004FF0A0412246012302F5E0700132202A81
:101FF00041F82030F8D120BF40BF20BF4FF08042D1
:10200000C2F80035DDE700230380032005B0F0BDF2
:10201000E74F0000D44F0000672A4D72734F000055
:10202000884F000008B500F047F800F0B5FF01F058
:1020300011F800F013FF00F0BBF901F037F80C487D
:1020400002F0F0F800210B4800F07CFF00F0E4FC07
:1020500000F01AFC00F07EFB00F018FC064800F0CF
:102060008BFC00F007FF0028FBD120BFF9E700BF81
:102070000F50000004030020E84E0000024BC3E9AB
:1020800000019860704700BFD8020020094A00286C
:10209000936806DA11681844884208D3906018469D
:1020A00070475168C91A814201DB1844F6E74FF0C6
:1020B000FF33F4E7D802002008B500F043F800F041
:1020C0002BF8BDE8084000F04EB800F065B800F00D
:1020D00069B800F079B810B5044630B100F05CF88A
:1020E000044400F059F8A042FBD310BD00F074B9CD
:1020F00000BF00BF00BF00BF00BF00BF00BF00BFE8
:1021000000BF00BF00BF00BF00BF00BF0138EFD15C
:10211000704700F069B800004FF0804301220021B1
:10212000C3F81825C3F804119A60D3F80421002AD3
:10213000FBD00022C3F8042170474FF080430122F6
:10214000DA6070474FF080430022C3F8002101227B
:102150001A60D3F80021002AFBD070474FF080436B
:1021600001225A6070470A4B40F2FF12C3F808255B
:102170000222C3F84423C3F80423064A602182F8EC
:1021800011134FF40031116001221A60704700BF33
:102190000010014000E100E0014BD3F80405704756
:1021A00000100140064B074A1868D2F804155A6817
:1021B00001EB006102EB91129A609868704700BFD2
:1021C0003003002000100140054A064B1168D3F887
:1021D000043503EB0163A0EB93105060704700BF20
:1021E0003003002000100140064B4FF40032C3F8CA
:1021F0004423C3F804230022C3F84405C3F8442150
:10220000704700BF001001400D4BD3F80421012A94
:1022100006D100220B49C3F804210A6801320A6082
:10222000D3F84421012A0AD10022C3F844214FF4F3
:102230000032C3F84823C3F8082300F0B9BC704744
:102240000010014030030020044B0022C3F8082195
:10225000D3F81805C0B200F087BF00BF00200040CF
:10226000054BD3F80821012AFBD10022C3F808212D
:10227000D3F81805C0B27047002000400246154848
:1022800010B50446D0F80831012B09D11846002AB0
:10229000A1BF0023C4F80831D4F818350B7010BD65
:1022A000013A12F1010F12D44FF47A7300BF00BF4C
:1022B00000BF00BF00BF00BF00BF00BF00BF00BF26
:1022C00000BF00BF00BF00BF013BEFD1DAE7002035
:1022D000DDE700BF00200040054BC3F81C05D3F824
:1022E0001C21012AFBD10022C3F81C21704700BF2A
:1022F0000020004038B515460C46631A9D4201DCAB
:10230000284638BD14F8010BFFF7E6FFF5E708B5DE
:102310000146007800B908BDFFF7DEFF11F8010F94
:10232000F8E7F0B54FF0A04501F5E07401269DF8FF
:102330001CC045F8246003F5E074002745F82470BC
:10234000194CC4F80C15C4F814352346BCF1000F21
:102350000DD000F5E07145F8216002F5E07145F817
:102360002170C4F81025C4F80805C4F86C65059AF6
:10237000C3F8242501210422C3F8002599601960BF
:102380000021C3F808114FF0FF31C3F808130749C3
:10239000C3F80423C1F880219DF818305B01DBB23B
:1023A00081F802330A60F0BD0020004000E100E047
:1023B0001FB503230022CDE90132064B009307220B
:1023C000082306210520FFF7ACFF05B05DF804EBFC
:1023D00000F0EEBE00B0AF0382B00190019B0BB9DC
:1023E00002B07047019B013B019340F2E73300BF0D
:1023F00000BF00BF00BF00BF00BF00BF00BF00BFE5
:1024000000BF00BF00BF00BF00BF013BEFD1E5E749
:10241000074B1A78012A07D1597809B10021597060
:10242000997809B100219970013A1A70704700BF7C
:1024300040030020014B012018607047001000404D
:10244000034BD3F80401003018BF0120704700BFD0
:1024500000100040034BD3F80C01003018BF0120DE
:10246000704700BF0010004010B50B4A0B4C1378AA
:10247000013313700A4BC4F804350A460146184666
:10248000FFF7C6F90023C4F80C31C4F80431FFF794
:10249000BFFF012010BD00BF40030020001000401E
:1024A000E207002008B5114B1A78EAB9012119702A
:1024B000DA700F4BC3F810211961D3F81021002AEC
:1024C000FBD00C4AC3F804250022C3F80C21C3F842
:1024D000042101221A60064AD2F80431002BFBD0F5
:1024E000FFF796FF012008BD0020FCE74003002015
:1024F00000100040E207002010B50C46FFF7B4FFC3
:102500002046BDE81040FFF7CDBF08B50E4BD97887
:102510001A4619B91878012110B15970012008BD67
:1025200019700A4B0A49C3F80415107900F0FF012D
:1025300018B9C3F80411C3F80C1101215960D17006
:10254000FFF766FFEAE700BF4003002000100040ED
:10255000E806002008B50B4BDA781AB11978012289
:1025600011B19A70012008BD1A70D970064BC3F8DA
:1025700010111A61D3F81021002AFBD0FFF748FF91
:10258000F0E700BF400300200010004038B50E4DBA
:102590002C78BCB901232B700C4BD3F80024012AF2
:1025A0000DD10B4B1C78A14203D322461946FFF7ED
:1025B0002FF90023EB70FFF72BFF204638BDD3F82F
:1025C0000034F6E70024F8E7400300200010004044
:1025D000E8060020038810B5044653B1B3F5287F00
:1025E0000CD1822908D100F059FF80210548FFF75E
:1025F000CDFF4FF428732380012002E000230380E5
:10260000032010BDE8060020014B00221A7070471D
:10261000E8060020012808B502D0032800D018B928
:10262000044BC3F8100508BD034801F06FFE0020FD
:10263000F9E700BF001000401A500000034A906004
:10264000034AC3B2C2F80835704700BF40030020F8
:1026500000100040014B9868704700BF4003002005
:10266000024BC3F80C050120704700BF001000406A
:10267000014BD3F80C05704700100040014BD3F814
:10268000480570470010004018B9044BD3F84405C2
:1026900070470128F9D00020704700BF008000403B
:1026A00098B10B4BD3F8002529B142F04062C3F832
:1026B00000250120704742F08062F8E7044B08468D
:1026C000D3F80025C3F8001570470029F6D07047ED
:1026D00000F001401C4B1A78187101321A701B4B24
:1026E000D0B1D3F8042342F00202C3F80423D3F894
:1026F000042342F00802C3F80423D3F8042342F46D
:102700008062C3F80423124B402283F80123022283
:10271000C3F880211A607BE6D3F8082342F0020256
:10272000C3F80823D3F8082342F00802C3F80823AB
:10273000D3F8082342F48062C3F80823044B022232
:10274000C3F88020E7E700BF4003002000100040EE
:1027500000E100E0F8B5344C344F00250126C4F800
:10276000FC5F2846C4F8FC6FFFF7B4FF0423C4F8ED
:102770000C351A23BB60C4F80835FFF74BFFBB6864
:10278000C4F854358E23C4F82435294BC4F81C35BD
:102790005523C4F81C55C4F82055C4F82435C4F892
:1027A00028350823C4F82C55C4F83065C4F814350E
:1027B000204BC4F81835204BC4F804350323C4F863
:1027C0003435D4F8343503F00303022B13D14FF61C
:1027D000FF73C4F83C35194BC4F83835124A184811
:1027E000D2F8003243F00303C2F80032002100F0B7
:1027F000A9FB0120F8BDD4F8343503F00303012B05
:1028000005D1FF23C4F83C3540F20713E4E7D4F8C0
:10281000343503F00303032BE0D10A4BC4F83C35F5
:1028200040F25B63D8E700BF001000404003002087
:1028300000D5BE89FA000400E20700202110010043
:10284000E402002055555500704700BF70474FF017
:10285000A0434FF40052C3F80C25084B084AC3F8B4
:10286000102500BF00BF00BF01221A60054AC3F84F
:10287000102500BF00BF00BF704700BF00600040D0
:10288000031F0200030D0300FFF7E1BF064A012307
:102890004FF4F021C2F80C35C2F80415C2F808351F
:1028A000024A1370704700BF00000140500300202F
:1028B000034B1B7813B1034B01221A60704700BF12
:1028C0005003002000000140054B1B783BB1054B35
:1028D000D3F80424D20744BF034AC3F80026704744
:1028E00050030020000001403546526E7047BFF390
:1028F0004F8F0549054BCA6802F4E0621343CB6071
:10290000BFF34F8F00BFFDE700ED00E00400FA05C4
:102910004FF000000B4A0C4B9A42BCBF42F8040B2C
:10292000FAE70A490A4A0B4B9B1A03DD043BC858D5
:10293000D050FBDC08480949FFF7A0FB00F0A6FED9
:1029400007480047280300201C090020F45000001D
:10295000F8000020280300202009002050FE03205A
:10296000F9000000FEE7FEE7FEE7FEE7FEE7FEE710
:10297000FEE7FEE7FEE7FEE710B5041F54F8040F7C
:1029800000B910BD002100F0DDFAF7E710B5041F13
:1029900054F8040F00B910BD00F05AFAF8E700002F
:1029A000F8B5038806461546CBB14A2B2BD18829AA
:1029B0001FD1174800F011FC0446C4B1231D9D42ED
:1029C0001FD1144D1248214600F029FC62692F687E
:1029D0002A60A2690AB1E06990472F6007E00C48BD
:1029E00000F0FBFB044634B9094B01221A714A235B
:1029F000338001200AE0A168201D00F053F924680B
:102A0000F1E72468D9E7002303800320F8BD00BF65
:102A1000540300206403002010B50548002404710D
:102A200000F0D8FB21460348BDE8104000F08ABA08
:102A300054030020F402002070B50446049DE361B5
:102A40000A4B1B79C4E905526BB1094D094B2E683D
:102A50002B60201D00F026F92E6021460348BDE8BA
:102A6000704000F0EFBBA160F7E700BF5403002007
:102A700064030020F402002013B5034C2468009482
:102A8000FFF7DAFF02B010BD6403002037B50D4632
:102A900011461A46064B1B680093069B0446FFF737
:102AA000CBFF2946201D03B0BDE8304000F020B91F
:102AB0006403002070B5094B1B7905463BB1084CF7
:102AC000084B26682360043000F0FEF82660294693
:102AD0000248BDE8704000F0B5BB00BF54030020C1
:102AE00064030020F402002070B5094B1B790546F1
:102AF0003BB1084C084B26682360043000F0ECF82A
:102B0000266029460248BDE8704000F09BBB00BF2C
:102B10005403002064030020F402002010B5084B89
:102B20001B79044643B1043000F000F92146044803
:102B3000BDE8104000F073BBC0E90333F6E700BF07
:102B40005403002010B504460948037923B1201D21
:102B5000BDE8104000F0CEB800F03FFB08B90120FE
:102B600010BDA04201D00068F8E70020F8E700BFE0
:102B70005403002038B50D4B1A681C460AB95A6038
:102B800038BDFFF7A2FA2168D1E9002313448A680F
:102B90001B1A12B918446060F2E7D2E90015294403
:102BA000091A8B4228BF0B469268F2E75C030020AB
:102BB000014800F0DFB900BF040300202DE9F8430D
:102BC0000388054653B1592B47D1872920D1254980
:102BD0000B68002063B918B10B6001E0214A136053
:102BE00059232B800120BDE8F88301203346F1E70B
:102BF000D3E902649442F8D000B10B6099680029CF
:102C0000EED0C868904206BF896899600B46F5E728
:102C10008229E5D1134F4FF00009B8463C680026E1
:102C2000002CDDD0204600F0FFF998B12246882123
:102C3000E06800F065F958B9E060A3682EB1B360B0
:102C4000C4F80890FFF796FFE8E7C8F80030F7E708
:102C5000FFF7AEFF2646A468E2E7002303800320C7
:102C6000C1E700BF5C03002010B50446FFF7A0FFDA
:102C7000E3680A4A0BB1136833B9094B1B68E36078
:102C80001368A360146004E0A34205D1044A1268EB
:102C9000DA60BDE810406DE79B68EDE75C0300205B
:102CA0006403002010B5044600F0ACF92046BDE8EE
:102CB0001040D9E738B504460D4600F0AAF9656022
:102CC0002046BDE83840CFE710B5044600F0A1F932
:102CD0002046BDE81040C7E710B5044600F09EF955
:102CE0002046BDE81040BFE703681944016041E792
:102CF00001603FE7C068B0FA80F040097047D0E952
:102D000000201044704700687047034B186800307B
:102D100018BF0120704700BF5C030020024B1868F9
:102D200000B15868704700BF5C0300200B4A13686D
:102D3000834210B5044608D183681360FFF71AFF79
:102D40000023C4E9023310BD1346002BF8D09A6863
:102D5000A242F9D1A2689A60F0E700BF5C030020AC
:102D600038B5836804460D4693B10A4804600220D2
:102D7000A07304F10C0098470238012801D9832D73
:102D800004D121462046BDE838400AE00123A37360
:102D900038BD00BF64030020837BDB0700D5DFE77D
:102DA00070472DE9F0411B4D6E68884634468442D9
:102DB00004D00CB9BDE8F0812468F8E7002CF9D004
:102DC000A37B2F6863B10023A37386B9A3683BB1CB
:102DD000444505D02C603246832104F10C0098470D
:102DE0006B68A3420DD123686B602F60E2E7B442A9
:102DF00004D0224687213046FFF7CEFF3668E4E74D
:102E00001346002BF1D01A68A242F9D122681A6049
:102E1000EBE700BF6403002038B5084B00225C6874
:102E20001A72012504B938BDE37B2BB1E58100227C
:102E300082212046FFF794FF2468F3E76403002013
:102E4000024B587A421C5A72704700BF640300203C
:102E5000014B1968A5E700BF64030020044B8A22D8
:102E60005A7200229A72DA72C3E90022704700BFD8
:102E70006403002038B51D4C237A0BB1FFF7CCFF5B
:102E8000E57ABDB1A37A0C2000FB03400133017B3E
:102E90000269406984F88C1103F01F03013DC4F8F6
:102EA0009021A372E572C8B96368C4F89431D4F86C
:102EB00094311BB9237AE07A184438BD237A0BB1D8
:102EC000FFF7AAFFD4F8902194F88C11D4F894015C
:102ED000FFF762FFD4F894311B68E6E7812904BF4D
:102EE00001238373FFF758FFE4E700BF640300206A
:102EF000024B1A7AD87A1044704700BF640300204E
:102F000070B50A4DEC7A202C0DD0AB7A234403F037
:102F10001F030C2606FB03530134C3E90420197375
:102F2000EC72002070BD0120FCE700BF64030020AC
:102F300038B5034C2568FFF72FFF256038BD00BF6B
:102F40006403002030B40A4C65680A462B4683426D
:102F50000CD04BB950B10121056081736060838151
:102F6000812130BCFFF7E4BF1B68F0E730BC70473D
:102F70006403002038B1837B013B012B9FBF024AD1
:102F80000123C3731372704764030020807B0030F9
:102F900018BF0120704700BF00F012BC024607486E
:102FA000536010B50468029B93601160026014B90D
:102FB000084600F029FC002010BD00BFFC040020E2
:102FC00008B54360029B8360034B016018600846AC
:102FD00000F01AFC002008BDFC04002010B5084CCD
:102FE000206858B100232360D0E901319847236855
:102FF00023B11868BDE8104000F006BC10BD00BF4A
:10300000FC04002010B541600446FFF75EF8206024
:1030100010BDD0E9003213440360704710B5044678
:10302000FFF753F8206010BD10B50446FFF74DF8C8
:103030002368C3F101030344606898422CBF002059
:10304000012010BD10B5D0E900431C44FFF73DF846
:10305000201A10BD08B500F095FA024B00221A7034
:1030600008BD00BF0005002000F0ACBA014B18708D
:1030700000F0BDBA00050020024A13781843107012
:1030800000F0B5BA00050020034A137823EA0000D7
:10309000107000F0ACBA00BF00050020024A13789F
:1030A0005840107000F0A3BA0005002010B5084B7E
:1030B0001C78E443E4B22046FFF7F0FF4FF4C870F9
:1030C000FFF714F82046BDE81040FFF7E7BF00BF48
:1030D0000005002070B50488672C054609D0792CBE
:1030E00030D0002C34D1FFF7ABFE1B4B18701B4BBC
:1030F0001C601A4C261D08E00A2823680ED07E2B7F
:1031000003DC5A1C234422601873304600F0DBF8BD
:10311000431CF1D167232B8001201CE05A1C226044
:103120001C440D4B0E4A1978002630462673FFF7D3
:10313000E7FE0C4B324685211868FFF7E1FE18B90F
:103140007923E8E78529E7D1044B00221A60D0E70C
:1031500000230380032070BDDC080020040500204C
:1031600010050020640300200D2810B5014618D07A
:103170000D4C94F88C305BB9201D00F091F810B91B
:10318000012384F88C300948FFF7F4FE012010BDBC
:103190000A28F8D1201D00F083F80028F3D000237E
:1031A000EFE70020F3E700BF040500201403002030
:1031B00008B50648802200F18D01043000F069F85E
:1031C00000210348BDE80840FFF7BCBE040500200D
:1031D00014030020002303607047006870470B68E9
:1031E00003607047006808B9704718460368002BF1
:1031F000FBD17047036813B11A681AB90260184608
:10320000704713461A6811680029FAD119601346ED
:10321000F5E703680BB11A68026018467047036847
:1032200010B53BB1002499421A6806D11CB902605E
:1032300000230B6010BD2260FAE71C46002AF9D07B
:103240001346F0E738B50546FFF7E9FF00230B60AA
:10325000FFF7C8FF08B9296038BD0160FCE738B541
:103260000446FFF7DCFF03680B60216038BD03688C
:10327000002003B9704701301B68FAE711B9114605
:10328000FFF7EDBF0B6813600A60704700B100687C
:1032900070470023013A01600271437183717047E6
:1032A00010B5427983790479D31A34EA030308D03C
:1032B0000368995443790279013313404371012023
:1032C00010BD0020FCE7837942790179D21A0A42C5
:1032D0001FBF0268D25C01330B401ABF83711046D6
:1032E0004FF0FF30704700790130704743798279A1
:1032F00000799B1A18407047014B30221A707047B2
:1033000014060020094B598830B549B1988803F15B
:103310000804303030222144824202DB00225A80ED
:1033200030BD8D5C15550132F6E700BF1406002054
:1033300010B5054B13F8081BC1F13004224619449F
:10334000FEF766FA204610BD140600202DE9F04174
:103350000E4C2378A788C3F13006BD19802D804616
:1033600011DC04F1080119443246FEF751FA638872
:10337000D4F8B8103A46194408EB0600FEF748FAAC
:103380002846BDE8F0810025FAE700BF14060020BA
:10339000024A137818441070704700BF14060020CA
:1033A000064B9A888242A1BF598880B20918101A28
:1033B000A3BF988059800120002070471406002088
:1033C000014B9880704700BF1406002002484388D4
:1033D00018443830704700BF14060020024B03F138
:1033E00008001B781844704714060020014B988889
:1033F000704700BF14060020044B1878C0F130005D
:1034000010F0FF0008BF9878704700BF1406002036
:1034100008B5FFF7F1FF024B9B88184480B208BD46
:103420001406002010B5084C22788242014608DBC1
:10343000FFF7EEFF0844802803DC521A22700120B7
:1034400010BD0020FCE700BF1406002008B50D4A9F
:103450000023194622F8131001331A2BFAD10A4916
:103460000A4800F003FA0849094800F0FFF9064944
:10347000084800F0FBF904490748BDE8084000F09F
:10348000F5B900BFE608002074500000DE080020F7
:10349000E0080020E2080020E4080020054B00229C
:1034A0005A809A801A46302102F8381BC3F8B82097
:1034B000FFF7CCBF1406002070B50C460646074D3A
:1034C000FFF7ECFF802C28BF802422463146D5F838
:1034D000B800FEF79DF9AC80204670BD14060020B0
:1034E00010B5074B03F1340253F8044B40F8044B7A
:1034F0009342F9D1034A13680B6053684B6010BDC7
:10350000E6080020DE08002010B5074B00F1340269
:1035100050F8044B43F8044B9042F9D1034A0B682E
:1035200013604B68536010BDE6080020DE080020E1
:10353000024B23F810100120704700BFE60800205E
:10354000014B33F810007047E608002008B5044B23
:103550001A3803EB400000F089F9012008BD00BFD4
:10356000DE080020024B1A3803EB4000704700BF12
:10357000DE0800200149024800F07BB974500000C9
:10358000E00800204FF0A04301224FF40041C3F8AF
:103590003C274FF48040C3F808154FF40051C3F89E
:1035A0003427C3F80815C3F83827C3F808054FF4C3
:1035B0008030C3F84027C3F80805C3F83427C3F8A0
:1035C000081570474FF0A043D3F81025D3F8100525
:1035D000D3F81035C0F38030C2F3C032400040EA67
:1035E0008200C3F34033184380F0070070474FF068
:1035F000A04310F0010F4FF400520CBFC3F80C258C
:10360000C3F808254FF0A04310F002014FF48042A8
:103610000CBFC3F80C25C3F808254FF0A0434FF4A6
:10362000004210F004000CBFC3F80C25C3F80825B5
:103630004FF0A0434FF4803249B9C3F80C254FF046
:10364000A0434FF4005228B9C3F80C257047C3F8C3
:103650000825F4E7C3F8082570470000054B1B68F0
:10366000082B01BF044B1868B0FA80F0400918BF5E
:10367000002070473001001034010010014B024A55
:103680001A607047240300200090D00308B5FFF7AC
:10369000E5FF40B14FF080430022C3F80C21C3F88E
:1036A0001021C3F83825FFF7D9FF10B1374B384A3E
:1036B0001A60FFF7D3FF18B1364BFB22C3F8182569
:1036C000FFF7CCFF48B13449344B0A681B6822F03D
:1036D0000F0203F00F0313430B60FFF7BFFF18B196
:1036E0002F4B4FF400721A60FFF7B8FF10B12D4B4B
:1036F0002D4A1A602D4AD2F8883043F47003C2F87C
:103700008830BFF34F8FBFF36F8F4FF01023D3F884
:103710000022002A03DBD3F80432002B2FDA244BDB
:103720000122C3F80425D3F80024002AFBD04FF06F
:1037300010221221C2F80012D3F80024002AFBD074
:103740004FF010231222C3F80422194B1A46D3F863
:1037500000140029FBD00021C3F80415D2F800346E
:10376000002BFBD0BFF34F8F1049124BCA6802F4F5
:10377000E0621343CB60BFF34F8F00BFFDE70E4BFA
:103780000E4A1A60BDE8084000F082B88C5600402E
:103790004881030000F00040E40E00405802001091
:1037A00040960240009602400004040000ED00E054
:1037B00000E001400400FA05240300200090D0033B
:1037C00008B54FF08043D3F80C34DB0301D4FEF787
:1037D000B9FC0B4B002201210320D960C3F804255A
:1037E000C3F81025C3F80805C3F848214FF4002298
:1037F000C3F80423034A602082F80803196008BD57
:103800000080004000E100E0054BC3F84805054B8F
:103810004FF480721A60044B01221A70704700BF87
:103820000080004000E100E0D00600200B4BD3F800
:103830004821012A0DD10022C3F84821084B1978EC
:1038400051B108494FF48070C1F880001A70FFF739
:10385000C5BB054800F0E6BC704700BF00800040D3
:10386000D006002000E100E0685000000B880380D3
:10387000704708B5022200F0C5FCB0FA80F040099C
:1038800008BD024B02881A80704700BF1A09002049
:10389000064B07498B4205D00022885898500432C5
:1038A000D82AFAD1034A9360704700BF0000002075
:1038B0000000000000ED00E0034B10309B6843F86F
:1038C0002010BFF35F8F704700ED00E0024B103017
:1038D0009B6853F82000704700ED00E081F0004144
:1038E00002E000BF83F0004330B54FEA41044FEAE5
:1038F000430594EA050F08BF90EA020F1FBF54EA80
:10390000000C55EA020C7FEA645C7FEA655C00F01B
:10391000E2804FEA5454D4EB5555B8BF6D420CDDEC
:103920002C4480EA020281EA030382EA000083EA6F
:10393000010180EA020281EA0303362D88BF30BD0F
:1039400011F0004F4FEA01314FF4801C4CEA113165
:1039500002D0404261EB410113F0004F4FEA0333C4
:103960004CEA133302D0524263EB430394EA050F4F
:1039700000F0A780A4F10104D5F1200E0DDB02FABE
:103980000EFC22FA05F2801841F1000103FA0EF252
:10399000801843FA05F359410EE0A5F120050EF118
:1039A000200E012A03FA0EFC28BF4CF0020C43FA49
:1039B00005F3C01851EBE37101F0004507D54FF056
:1039C000000EDCF1000C7EEB00006EEB0101B1F5A6
:1039D000801F1BD3B1F5001F0CD349085FEA3000EC
:1039E0004FEA3C0C04F101044FEA445212F5800FF7
:1039F00080F09A80BCF1004F08BF5FEA500C50F194
:103A0000000041EB045141EA050130BD5FEA4C0C76
:103A1000404141EB010111F4801FA4F10104E9D1FF
:103A200091F0000F04BF01460020B1FA81F308BFF6
:103A30002033A3F10B03B3F120020CDA0C3208DDC2
:103A400002F1140CC2F10C0201FA0CF021FA02F19D
:103A50000CE002F11402D8BFC2F1200C01FA02F10D
:103A600020FA0CFCDCBF41EA0C019040E41AA2BF32
:103A700001EB0451294330BD6FEA04041F3C1CDAFA
:103A80000C340EDC04F11404C4F1200220FA04F01A
:103A900001FA02F340EA030021FA04F345EA0301C4
:103AA00030BDC4F10C04C4F1200220FA02F001FA86
:103AB00004F340EA0300294630BD21FA04F0294608
:103AC00030BD94F0000F83F4801306BF81F48011A1
:103AD0000134013D4EE77FEA645C18BF7FEA655C14
:103AE00029D094EA050F08BF90EA020F05D054EAE6
:103AF000000C04BF1946104630BD91EA030F1EBFEB
:103B00000021002030BD5FEA545C05D140004941EE
:103B100028BF41F0004130BD14F580043CBF01F5E1
:103B2000801130BD01F0004545F0FE4141F47001C7
:103B30004FF0000030BD7FEA645C1ABF19461046A2
:103B40007FEA655C1CBF0B46024650EA013406BFA3
:103B500052EA033591EA030F41F4002130BD00BF62
:103B600090F0000F04BF0021704730B54FF480641F
:103B700004F132044FF000054FF0000150E700BFA0
:103B800090F0000F04BF0021704730B54FF48064FF
:103B900004F1320410F0004548BF40424FF00001EC
:103BA0003EE700BF42004FEAE2014FEA31014FEA2F
:103BB00002701FBF12F07F4393F07F4F81F060517E
:103BC000704732F07F4208BF704793F07F4F04BFC9
:103BD00041F40021704730B54FF4607401F00045A6
:103BE00021F000411CE700BF50EA010208BF704706
:103BF00030B54FF000050AE050EA010208BF7047F7
:103C000030B511F0004502D5404261EB41014FF45F
:103C1000806404F132045FEA915C3FF4D8AE4FF067
:103C200003025FEADC0C18BF03325FEADC0C18BF4A
:103C3000033202EBDC02C2F1200300FA03FC20FA9B
:103C400002F001FA03FE40EA0E0021FA02F11444E8
:103C5000BDE600BF70B54FF0FF0C4CF4E06C1CEA01
:103C600011541DBF1CEA135594EA0C0F95EA0C0F72
:103C700000F0DEF82C4481EA030621EA4C5123EAE5
:103C80004C5350EA013518BF52EA033541F4801114
:103C900043F4801338D0A0FB02CE4FF00005E1FBC7
:103CA00002E506F00042E0FB03E54FF00006E1FB11
:103CB00003569CF0000F18BF4EF0010EA4F1FF0454
:103CC000B6F5007F64F5407404D25FEA4E0E6D4194
:103CD00046EB060642EAC62141EA55514FEAC520A5
:103CE00040EA5E504FEACE2EB4F1FD0C88BFBCF521
:103CF000E06F1ED8BEF1004F08BF5FEA500E50F1D2
:103D0000000041EB045170BD06F0004646EA010197
:103D100040EA020081EA0301B4EB5C04C2BFD4EBC9
:103D20000C0541EA045170BD41F480114FF0000EC2
:103D3000013C00F3AB8014F1360FDEBF002001F030
:103D4000004170BDC4F10004203C35DA0C341BDCAA
:103D500004F11404C4F1200500FA05F320FA04F07C
:103D600001FA05F240EA020001F0004221F00041B0
:103D700010EBD37021FA04F642EB06015EEA430E23
:103D800008BF20EAD37070BDC4F10C04C4F1200553
:103D900000FA04F320FA05F001FA04F240EA020006
:103DA00001F0004110EBD37041F100015EEA430ED7
:103DB00008BF20EAD37070BDC4F1200500FA05F2F7
:103DC0004EEA020E20FA04F301FA05F243EA020376
:103DD00021FA04F001F0004121FA04F220EA020085
:103DE00000EBD3705EEA430E08BF20EAD37070BDCB
:103DF00094F0000F0FD101F00046400041EB0101AB
:103E000011F4801F08BF013CF7D041EA060195F08C
:103E1000000F18BF704703F00046520043EB030346
:103E200013F4801F08BF013DF7D043EA0603704733
:103E300094EA0C0F0CEA135518BF95EA0C0F0CD03E
:103E400050EA410618BF52EA4306D1D181EA030184
:103E500001F000414FF0000070BD50EA410606BF7E
:103E60001046194652EA430619D094EA0C0F02D1C3
:103E700050EA013613D195EA0C0F05D152EA033608
:103E80001CBF104619460AD181EA030101F0004126
:103E900041F0FE4141F470014FF0000070BD41F06F
:103EA000FE4141F4780170BD70B54FF0FF0C4CF449
:103EB000E06C1CEA11541DBF1CEA135594EA0C0F68
:103EC00095EA0C0F00F0A7F8A4EB050481EA030EB5
:103ED00052EA03354FEA013100F088804FEA03339C
:103EE0004FF0805545EA131343EA12634FEA02226A
:103EF00045EA111545EA10654FEA00260EF000412B
:103F00009D4208BF964244F1FD0404F5407402D27C
:103F10005B084FEA3202B61A65EB03055B084FEA0D
:103F200032024FF480104FF4002CB6EB020E75EB0A
:103F3000030E22BFB61A754640EA0C005B084FEA32
:103F40003202B6EB020E75EB030E22BFB61A7546AF
:103F500040EA5C005B084FEA3202B6EB020E75EBFA
:103F6000030E22BFB61A754640EA9C005B084FEA72
:103F70003202B6EB020E75EB030E22BFB61A75467F
:103F800040EADC0055EA060E18D04FEA051545EA6E
:103F900016754FEA06164FEAC30343EA52734FEA17
:103FA000C2025FEA1C1CC0D111F4801F0BD141EA90
:103FB00000014FF000004FF0004CB6E711F4801FF5
:103FC00004BF01430020B4F1FD0C88BFBCF5E06FD5
:103FD0003FF6AFAEB5EB030C04BFB6EB020C5FEAE5
:103FE000500C50F1000041EB045170BD0EF0004E3A
:103FF0004EEA113114EB5C04C2BFD4EB0C0541EA6C
:10400000045170BD41F480114FF0000E013C90E668
:1040100045EA060E8DE60CEA135594EA0C0F08BF2C
:1040200095EA0C0F3FF43BAF94EA0C0F0AD150EA2B
:1040300001347FF434AF95EA0C0F7FF425AF1046BE
:1040400019462CE795EA0C0F06D152EA03353FF4E6
:10405000FDAE1046194622E750EA410618BF52EA63
:1040600043067FF4C5AE50EA41047FF40DAF52EA37
:1040700043057FF4EBAE12E74FF0FF3C06E000BFD4
:104080004FF0010C02E000BF4FF0010C4DF804CDE1
:104090004FEA410C7FEA6C5C4FEA430C18BF7FEAA1
:1040A0006C5C1BD001B050EA410C0CBF52EA430CCF
:1040B00091EA030F02BF90EA020F0020704710F14F
:1040C000000F91EA030F58BF994208BF90422CBFDE
:1040D000D8176FEAE37040F0010070474FEA410CD7
:1040E0007FEA6C5C02D150EA013C07D14FEA430CF5
:1040F0007FEA6C5CD6D152EA033CD3D05DF8040B66
:10410000704700BF8446104662468C461946634697
:1041100000E000BF01B5FFF7B7FF002848BF10F16E
:10412000000F01BD4DF808EDFFF7F4FF0CBF0120B3
:1041300000205DF808FB00BF4DF808EDFFF7EAFF2F
:1041400034BF012000205DF808FB00BF4DF808EDEA
:10415000FFF7E0FF94BF012000205DF808FB00BFDF
:104160004DF808EDFFF7CEFF94BF012000205DF869
:1041700008FB00BF4DF808EDFFF7C4FF34BF012076
:1041800000205DF808FB00BF4FEA410C7FEA6C5C41
:1041900002D150EA013C0AD14FEA430C7FEA6C5C41
:1041A00002D152EA033C02D14FF0000070474FF0B9
:1041B000010070474FEA410212F5001215D211D5E5
:1041C0006FF47873B3EB625212D94FEAC12343F014
:1041D000004343EA505311F0004F23FA02F018BF96
:1041E000404270474FF00000704750EA013005D15F
:1041F00011F0004008BF6FF0004070474FF0000022
:10420000704700BF30B50024A24201D1002007E072
:10421000035D01340D1915F8015CAB42F4D0581B55
:1042200030BD00000FB40A4B13B51C6824B1A3695C
:1042300013B9204600F022FA05AB049AA168019355
:10424000204600F033FB02B0BDE8104004B07047D8
:10425000F800002070B50E46054618B183690BB909
:1042600000F00CFAAB69AC6813B9284600F006FA06
:10427000234B9C4217D16C68A3891B071DD523696A
:10428000DBB1013EA36816F8011F013BA360E9B949
:10429000002B2EDA22460A21284600F03FF8013092
:1042A00011D00A2011E0174B9C4201D1AC68E3E722
:1042B000154B9C4208BFEC68DEE72146284600F01B
:1042C0007FF80028DDD04FF0FF3070BD002B04DAFE
:1042D000A2699A4206DC0A2904D023685A1C22608B
:1042E0001970CFE72246284600F018F80130C9D1EE
:1042F000E9E723680A205A1C22601870E5E700BF2E
:1043000098500000B850000078500000024B014661
:104310001868FFF79FBF00BFF8000020F8B50E46F1
:104320001446054618B183690BB900F0A7F9214B73
:104330009C422AD16C68A369A360A3891A072ED571
:10434000236963B323692068C01A6369F6B28342A4
:10435000374604DC2146284600F026F928BBA3682E
:10436000013BA36023685A1C22601E706369013000
:10437000834204D0A389DB0719D50A2E17D1214621
:10438000284600F011F990B10FE00B4B9C4201D18F
:10439000AC68D0E7094B9C4208BFEC68CBE72146EC
:1043A000284600F00DF80028CCD04FF0FF373846F3
:1043B000F8BD00BF98500000B850000078500000D1
:1043C000324B70B51D6806460C4625B1AB6913B972
:1043D000284600F053F92E4B9C420FD16C68B4F97B
:1043E0000C309AB215072CD4D00611D409223260B1
:1043F00043F04003A3814FF0FF303EE0254B9C4249
:1044000001D1AC68EBE7244B9C4208BFEC68E6E7BF
:10441000510712D5616B41B104F14403994202D0B6
:104420003046FDF7E9FC00236363A38923F02403EE
:10443000A3810023636023692360A38943F00803F9
:10444000A38123694BB9A38903F42073B3F5007FDB
:1044500003D02146304600F0BFF9A28912F00103D3
:104460000CD00023A36063695B42A361236953B945
:10447000B4F90C3013F08000BAD170BD920758BF68
:104480006369A360F2E70020F7E700BFF8000020AF
:1044900098500000B8500000785000008A892DE93B
:1044A000F041054610070C4658D44B68002B05DC3C
:1044B0000B6C002B02DC0020BDE8F081E66A002EC8
:1044C000F9D0002312F480522F68216A2B6032D079
:1044D000606DA3895A0705D56368C01A636B0BB179
:1044E000236CC01A00230246E66A216A2846B047B8
:1044F000431CA38906D129681D2948D8294ACA40E6
:10450000D60744D500226260D9042269226004D50E
:10451000421C01D12B6803B96065616B2F600029D3
:10452000C9D004F14403994202D02846FDF764FC47
:1045300000206063C0E701232846B047411CC8D172
:104540002B68002BC5D01D2B01D0162B01D12F605D
:10455000B1E7A38943F04003A381ADE70F69002FC2
:10456000A9D093070E6808BF4B690F6018BF0023DE
:10457000A6EB07088B60B8F1000F9CDD43463A4676
:10458000216AA66A2846B047002806DCA38943F0C2
:104590004003A3814FF0FF308EE70744A8EB0008EB
:1045A000E9E700BF0100402038B50B6905460C461D
:1045B000DBB118B183690BB900F060F80C4B9C4279
:1045C00009D16C68B4F90C307BB121462846BDE8AE
:1045D0003840FFF763BF074B9C4201D1AC68F1E75D
:1045E000054B9C4208BFEC68ECE7002038BD00BFDB
:1045F00098500000B850000078500000002310B51B
:104600000446C0E90033836081814366C281C0E90A
:1046100004338361194608225C30FBF7DFFD054B4C
:104620006362054BA362054BE362054B246223637F
:1046300010BD00BFD54A0000F74A00002F4B000014
:10464000534B0000014900F085B800BFA9450000A8
:1046500070B54A1E682555430E4605F17401FDF7F5
:1046600019FC044640B10021C0E900160C30A060DE
:1046700005F16802FBF7B2FD204670BD836910B5F5
:10468000044633BBC0E912330365124B124A1B6860
:104690008262984204BF0123836100F01FF86060CA
:1046A000204600F01BF8A060204600F017F800221A
:1046B000E06004216068FFF7A1FF01220921A068E2
:1046C000FFF79CFF02221221E068FFF797FF01230A
:1046D000A36110BD984C000045460000F8B51B4B87
:1046E0001E68B369074613B93046FFF7C7FF48365F
:1046F000D6E90134013B03D5336833B13668F7E7B7
:10470000B4F90C506DB16834F4E704213846FFF772
:104710009FFF30600028F1D10C233B600446204607
:10472000F8BD0B4B6566C4E90055A560C4E90335C7
:10473000C4E905550822294604F15C00FBF74EFD4B
:10474000C4E90D55C4E91255E9E700BF984C0000D3
:104750000100FFFF2DE9F8438046894600F1480437
:10476000002614B93046BDE8F883D4E90175013F4D
:1047700001D52468F5E7AB89012B07D9B5F90E30CF
:10478000013303D029464046C84706436835EEE763
:1047900070B50E46B1F90E10002996B014461D46AC
:1047A00007DA00232B60B3891A0610D44FF4806314
:1047B0000EE06A4600F0F4F90028F2DB019A02F4F8
:1047C0007042A2F500535A425A412A60EEE7402354
:1047D0000020236016B070BD8B8973B59D07064617
:1047E0000C4607D504F1470323602361012363616D
:1047F00002B070BD01AB6A46FFF7CAFF00990546DB
:104800003046FDF747FB48B9B4F90C309A05EFD4B0
:1048100023F0030343F00203A381E3E70D4BB362EC
:10482000A389206043F08003A381009B6361019B07
:1048300020615BB1B4F90E10304600F0C3F928B125
:10484000A38923F0030343F00103A381A3891D433C
:10485000A581CDE7454600009368013B002B10B4CD
:10486000936008DA9469A34201DB0A2903D15DF859
:10487000044BFFF753BD1368581C106019700846AD
:104880005DF8044B7047F8B506460F461446D51838
:10489000AC4201D1002007E03A4614F8011B304633
:1048A000FFF7DAFF431CF3D1F8BD00002DE9F04F0C
:1048B0009DB00C4617460393064618B183690BB9A1
:1048C000FFF7DCFE7B4B9C4257D17468A389180725
:1048D0005DD52369002B5AD00023099320238DF83E
:1048E000293030238DF82A304FF0010BB846454669
:1048F00015F8013B0BB1252B54D1B8EB070A0BD0AF
:1049000053463A4621463046FFF7BDFF013000F0DE
:10491000C280099B5344099398F80030002B00F0A3
:10492000BA8000234FF0FF32CDE9052304930793AB
:104930008DF853301A93A846052218F8011B5E48DB
:10494000FCF716FF049B78BBD90644BF20228DF8E4
:1049500053201A0744BF2B228DF853202A782A2A85
:104960002AD0079AA84600200A25414611F8013BA3
:10497000303B092B69D960B324E0504B9C4201D1F4
:10498000B468A3E74E4B9C4208BFF4689EE72146FB
:104990003046FFF715FD00289ED04FF0FF301DB0C8
:1049A000BDE8F08FA846A2E7434A801A0BFA00F050
:1049B000184304904546BEE7039A111D12680391FF
:1049C000002A01DB079204E0524243F002030792FF
:1049D000049398F800302E2B0ED198F801302A2B32
:1049E00038D1039B1A1D1B680392002BB8BF4FF0F0
:1049F000FF3308F102080593324D98F800100322A6
:104A00002846FCF7B5FE40B14023401B03FA00F0F6
:104A1000049B034308F10108049398F800102A4806
:104A20008DF82810062208F10107FCF7A1FE0028E6
:104A300037D0264B1BBB039B073323F007030833F8
:104A40000393099B4B44099350E705FB0232012075
:104A500088468AE7002308F10108059319460A25CC
:104A6000404610F8012B303A092A03D9002BC3D055
:104A70000591C1E705FB012101238046F0E703AB67
:104A800000932246124B04A93046FBF743FCB0F1D9
:104A9000FF3F8146D5D1A3895B063FF57EAF0998DC
:104AA0007DE703AB00932246094B04A93046FBF790
:104AB000E7FEECE798500000D8500000B850000026
:104AC00078500000DE500000E250000015030000A6
:104AD0008748000010B50C46B1F90E1000F094F8AC
:104AE0000028ABBF636DA3891B1823F48053ACBFB0
:104AF0006365A38110BD2DE9F0411F468B89DB055D
:104B000005460C46164605D502230022B1F90E10C3
:104B100000F068F8A389B4F90E1023F48053A38140
:104B200032463B462846BDE8F04100F017B810B5C4
:104B30000C46B1F90E1000F055F8431CA38915BFBF
:104B4000606523F4805343F48053A38118BFA3818D
:104B500010BDB1F90E1000F013B8000038B5074CC5
:104B6000054608461146002222601A46FDF7C2FBA0
:104B7000431C02D1236803B12B6038BDE40600203A
:104B800038B5064C002305460846236000F04EF871
:104B9000431C02D1236803B12B6038BDE40600201A
:104BA00038B5074C0023054608461146236000F03F
:104BB00045F8431C02D1236803B12B6038BD00BF08
:104BC000E406002038B5064C00230546084623605D
:104BD00000F03CF8431C02D1236803B12B6038BDC0
:104BE000E406002038B5074C054608461146002269
:104BF00022601A4600F032F8431C02D1236803B148
:104C00002B6038BDE406002038B5074C0546084641
:104C10001146002222601A4600F028F8431C02D1F7
:104C2000236803B12B6038BDE4060020024B5822F4
:104C30001A604FF0FF307047E4060020024B582204
:104C40001A604FF0FF307047E4060020024B5822F4
:104C50001A600020704700BFE4060020024B582273
:104C60001A604FF0FF307047E4060020024B5822D4
:104C70001A604FF0FF307047E4060020FEE700BFE7
:104C8000F8B500BFF8BC08BC9E467047F8B500BF39
:104C9000F8BC08BC9E467047FC000020494E460008
:104CA000696E66004E414E006E616E00300030311C
:104CB0003233343536373839414243444546003083
:104CC00031323334353637383961626364656600B2
:104CD000496E66696E697479004E614E000000008D
:104CE0000080E03779C34143176E05B5B5B89346E8
:104CF000F5F93FE9034F384D321D30F94877825AB4
:104D00003CBF737FDD4F1575000000000000F03FD1
:104D10000000000000002440000000000000594096
:104D20000000000000408F40000000000088C340E9
:104D300000000000006AF8400000000080842E415E
:104D400000000000D01263410000000084D79741AA
:104D50000000000065CDCD41000000205FA00242B0
:104D6000000000E876483742000000A2941A6D4225
:104D7000000040E59C30A2420000901EC4BCD64218
:104D800000003426F56B0C430080E03779C34143C3
:104D900000A0D8855734764300C84E676DC1AB4339
:104DA000003D9160E458E143408CB5781DAF154457
:104DB00050EFE2D6E41A4B4492D54D06CFF0804432
:104DC000F64AE1C7022DB544B49DD9794378EA4447
:104DD00005000000190000007D0000004300504F56
:104DE000534958002E000020202020202020202081
:104DF000282828282820202020202020202020208B
:104E000020202020202020881010101010101010BA
:104E100010101010101010040404040404040404FE
:104E20000410101010101010414141414141010186
:104E30000101010101010101010101010101010162
:104E40000101101010101010424242424242020270
:104E50000202020202020202020202020202020232
:104E600002021010101020000000000000000000DE
:104E70000000000000000000000000000000000032
:104E80000000000000000000000000000000000022
:104E90000000000000000000000000000000000012
:104EA0000000000000000000000000000000000002
:104EB00000000000000000000000000000000000F2
:104EC00000000000000000000000000000000000E2
:104ED00000000000000000000000000000000000D2
:104EE0000000000000000000C802002000000000D8
:104EF000468147EADCD8485F94A2A9E2F015CA07C8
:104F00004D3F39E662B6429593FC318217998EEE99
:104F100074112BAD98A9448797FC88827D7BB34A96
:104F2000DD7F2315A0BB44C4AC57695948D46847FA
:104F30000D56AF0FA98D46E99002569B9D1CB0E51A
:104F4000E08E2CEB526F4317B143B23DB427003EC5
:104F50000770B9E0041F4825BACDD89AEF934BFBF0
:104F600038ED90362AAB4B8F849AA2067D212E080D
:104F700025262741756720203820323031382031EE
:104F8000393A33333A333700402025732C204944D3
:104F90003A203078256C782C206D61737465723AF4
:104FA000203078256C782C20747820706F776572AB
:104FB0003A2025642064426D2C206368616E6E6522
:104FC0006C202575203D202575204D487A20282508
:104FD00073290A006E6F7420737464005458207033
:104FE000726F63657373000406080A0C0E101214C6
:104FF00016181C1E20222426282A2C2E3032343645
:10500000383A3C3E40424446484A4C4E621A500DA3
:1050100054657374696E670A0D00524144494F200C
:105020004D4F4445204E4F542053455421006E525D
:105030004620526164696F2064726976657200432C
:1050400074696D65722070726F6365737300457665
:10505000656E742074696D65720053657269616C68
:1050600020647269766572004F564552464C4F5720
:105070000A0D000000000000000000000000000019
:105080000000000000000000000000000000000020
:105090000000000000000000000000000000000010
:1050A0000000000000000000000000000000000000
:1050B00000000000000000000000000000000000F0
:1050C00000000000000000000000000000000000E0
:1050D0000000000000000000232D302B2000686C31
:0C50E0004C006566674546470000000074
:0850EC000CB0FF7F0100000081
:1050F400FC0000200000000098500000B8500000A0
:1051040078500000000000000000000000000000D3
:10511400000000000000000000000000000000008B
:10512400000000000000000000000000000000007B
:10513400000000000000000000000000000000006B
:10514400000000000000000000000000000000005B
:105154000000000043000000000000000000000008
:10516400000000000000000000000000000000003B
:1051740000000000430000000000000000000000E8
:10518400000000000000000000000000000000001B
:1051940000000000430000000000000000000000C8
:1051A40000000000000000000000000000000000FB
:1051B40000000000430000000000000000000000A8
:1051C40000000000000000000000000000000000DB
:1051D4000000000043000000000000000000000088
:1051E40000000000000000000000000000000000BB
:1051F4000000000043000000000000000000000068
:10520400000000000000000000000000000000009A
:105214000000000043000000000000000000000047
:10522400000000000000000000000000000000007A
:1052340000000000911F0000691F00000000000032
:10524400E64D0000E44D0000D34F0000D34F0000B2
:10525400D34F0000D34F0000D34F0000D34F0000C2
:10526400D34F0000D34F0000D34F0000FFFFFFFFD8
:10527400FFFFFFFFFFFFFFFFFFFF0000010041539F
:105284004349490000000000000000000000000045
:105294000000000000000000000000000000415376
:1052A4004349490000000000000000000000000025
:1052B40000000000000000000000000000000000EA
:1052C40000000000DC4F0000AD1F000000000000E3
:1052D40000000000000000000000000000000000CA
:1052E4002E500000D5250000000000000000000042
:1052F4003F500000A1290000000000000000000051
:105304004E500000BD2B0000000000000000000013
:105314005A500000D5300000000000000090D00377
:0400000300002911BF
:00000001FF
